{
  "contractName": "simpleKYC",
  "abi": [
    {
      "inputs": [
        {
          "internalType": "bool",
          "name": "initKYC",
          "type": "bool"
        }
      ],
      "payable": false,
      "stateMutability": "nonpayable",
      "type": "constructor"
    },
    {
      "constant": true,
      "inputs": [],
      "name": "eKYC",
      "outputs": [
        {
          "internalType": "bool",
          "name": "",
          "type": "bool"
        }
      ],
      "payable": false,
      "stateMutability": "view",
      "type": "function"
    },
    {
      "constant": true,
      "inputs": [],
      "name": "storedKYC",
      "outputs": [
        {
          "internalType": "uint256",
          "name": "",
          "type": "uint256"
        }
      ],
      "payable": false,
      "stateMutability": "view",
      "type": "function"
    },
    {
      "constant": false,
      "inputs": [],
      "name": "startUserKYC",
      "outputs": [],
      "payable": false,
      "stateMutability": "nonpayable",
      "type": "function"
    },
    {
      "constant": false,
      "inputs": [
        {
          "internalType": "uint256",
          "name": "x",
          "type": "uint256"
        }
      ],
      "name": "createUserInfo",
      "outputs": [],
      "payable": false,
      "stateMutability": "nonpayable",
      "type": "function"
    },
    {
      "constant": true,
      "inputs": [],
      "name": "getUserKYCApproval",
      "outputs": [
        {
          "internalType": "uint256",
          "name": "retVal",
          "type": "uint256"
        }
      ],
      "payable": false,
      "stateMutability": "view",
      "type": "function"
    }
  ],
  "bytecode": "0x608060405234801561001057600080fd5b506040516101dd3803806101dd8339818101604052602081101561003357600080fd5b810190808051906020019092919050505080600160006101000a81548160ff0219169083151502179055505061016f8061006e6000396000f3fe608060405234801561001057600080fd5b50600436106100575760003560e01c8063163bb1bf1461005c5780633b3dce5b1461007a5780633fad125114610084578063430b1728146100a2578063ca767b28146100d0575b600080fd5b6100646100f2565b6040518082815260200191505060405180910390f35b6100826100f8565b005b61008c610114565b6040518082815260200191505060405180910390f35b6100ce600480360360208110156100b857600080fd5b810190808035906020019092919050505061011d565b005b6100d8610127565b604051808215151515815260200191505060405180910390f35b60005481565b60018060006101000a81548160ff021916908315150217905550565b60008054905090565b8060008190555050565b600160009054906101000a900460ff168156fea265627a7a723158209e1f8b119951423faed178b8c983c0751ef9f0068a7c7ca0173ab83aac9ef9aa64736f6c63430005100032",
  "source": "pragma solidity >=0.4.21 <=0.8.0;\n\ncontract simpleKYC {\n  uint public storedKYC;\n  bool public eKYC;\n\n  constructor(bool initKYC) public {\n    eKYC = initKYC;\n  }\n\n  function startUserKYC() public {\n    eKYC = true;\n  }\n\n  function createUserInfo(uint x) public {\n    storedKYC = x;\n  }\n\n  function getUserKYCApproval() view public returns (uint retVal) {\n    return storedKYC;\n  }\n}\n\n",
  "sourcePath": "/home/vic/workspace/SmartContract/sc0/contracts/simpleKYC.sol",
  "compiler": {
    "name": "solc",
    "version": "0.5.16+commit.9c3226ce.Emscripten.clang"
  },
  "schemaVersion": "3.3.3",
  "updatedAt": "2021-02-11T03:01:09.405Z",
  "networkType": "quorum",
  "devdoc": {
    "methods": {}
  },
  "userdoc": {
    "methods": {}
  }
}