{
  "contractName": "ABC",
  "abi": [
    {
      "inputs": [],
      "payable": false,
      "stateMutability": "nonpayable",
      "type": "constructor"
    },
    {
      "anonymous": false,
      "inputs": [
        {
          "indexed": false,
          "name": "",
          "type": "address"
        },
        {
          "indexed": false,
          "name": "",
          "type": "uint256"
        }
      ],
      "name": "buyUSDToken",
      "type": "event"
    },
    {
      "constant": false,
      "inputs": [
        {
          "name": "_age",
          "type": "uint256"
        },
        {
          "name": "_gender",
          "type": "uint256"
        }
      ],
      "name": "register",
      "outputs": [
        {
          "name": "",
          "type": "address"
        }
      ],
      "payable": false,
      "stateMutability": "nonpayable",
      "type": "function"
    },
    {
      "constant": false,
      "inputs": [
        {
          "name": "_amount",
          "type": "uint256"
        }
      ],
      "name": "buyUSDTokens",
      "outputs": [],
      "payable": false,
      "stateMutability": "nonpayable",
      "type": "function"
    },
    {
      "constant": false,
      "inputs": [
        {
          "name": "_name",
          "type": "bytes32"
        },
        {
          "name": "_price",
          "type": "uint256"
        },
        {
          "name": "_ageLimit",
          "type": "uint256"
        },
        {
          "name": "_genderLimit",
          "type": "uint256"
        },
        {
          "name": "_returnDays",
          "type": "uint256"
        }
      ],
      "name": "addGoods",
      "outputs": [],
      "payable": false,
      "stateMutability": "nonpayable",
      "type": "function"
    },
    {
      "constant": false,
      "inputs": [
        {
          "name": "_name",
          "type": "bytes32"
        },
        {
          "name": "_quantity",
          "type": "uint256"
        }
      ],
      "name": "buyGoods",
      "outputs": [],
      "payable": false,
      "stateMutability": "nonpayable",
      "type": "function"
    },
    {
      "constant": false,
      "inputs": [],
      "name": "monthEndReward",
      "outputs": [],
      "payable": false,
      "stateMutability": "nonpayable",
      "type": "function"
    }
  ],
  "bytecode": "0x608060405234801561001057600080fd5b506100507f6170706c6500000000000000000000000000000000000000000000000000000060966000806000610085640100000000026401000000009004565b61006c426100f864010000000002610728176401000000009004565b6002600060036000849190505583919050555050610217565b8360016000878152602001908152602001600020600001819055508260016000878152602001908152602001600020600101819055508160016000878152602001908152602001600020600201819055508060016000878152602001908152602001600020600301819055505050505050565b6000806000610123620151808581151561010e57fe5b04610135640100000000026401000000009004565b80935081945082955050505050915091565b600080600080849050600062253d8c62010bd98301019050600062023ab18260040281151561016057fe5b059050600460038262023ab1020181151561017757fe5b0582039150600062164b0960018401610fa00281151561019357fe5b059050601f6004826105b5028115156101a857fe5b058403019250600061098f846050028115156101c057fe5b059050600060508261098f028115156101d557fe5b0585039050600b828115156101e657fe5b05945084600c0260028301039150848360318603606402010192508298508197508096505050505050509193909250565b610864806102266000396000f3fe608060405260043610610067576000357c0100000000000000000000000000000000000000000000000000000000900480634bad00f11461006c578063cbb76f2a146100cf578063ceec6e26146100e6578063d66d6c101461012b578063ed08a6b6146101b0575b600080fd5b34801561007857600080fd5b506100cd600480360360a081101561008f57600080fd5b8101908080359060200190929190803590602001909291908035906020019092919080359060200190929190803590602001909291905050506101eb565b005b3480156100db57600080fd5b506100e461025e565b005b3480156100f257600080fd5b506101296004803603604081101561010957600080fd5b810190808035906020019092919080359060200190929190505050610260565b005b34801561013757600080fd5b5061016e6004803603604081101561014e57600080fd5b81019080803590602001909291908035906020019092919050505061053a565b604051808273ffffffffffffffffffffffffffffffffffffffff1673ffffffffffffffffffffffffffffffffffffffff16815260200191505060405180910390f35b3480156101bc57600080fd5b506101e9600480360360208110156101d357600080fd5b810190808035906020019092919050505061065c565b005b8360016000878152602001908152602001600020600001819055508260016000878152602001908152602001600020600101819055508160016000878152602001908152602001600020600201819055508060016000878152602001908152602001600020600301819055505050505050565b565b60008060007f6170706c650000000000000000000000000000000000000000000000000000008514156102e25760156000803373ffffffffffffffffffffffffffffffffffffffff1673ffffffffffffffffffffffffffffffffffffffff168152602001908152602001600020600001541115156102dd57600080fd5b61035c565b7f626565720000000000000000000000000000000000000000000000000000000085141561035b5760016000803373ffffffffffffffffffffffffffffffffffffffff1673ffffffffffffffffffffffffffffffffffffffff1681526020019081526020016000206001015414151561035a57600080fd5b5b5b60026001600087815260200190815260200160002060000154850281151561038057fe5b049250826000803373ffffffffffffffffffffffffffffffffffffffff1673ffffffffffffffffffffffffffffffffffffffff168152602001908152602001600020600301600082825403925050819055506103db42610728565b80925081935050506002548214156104985760035481141561044b57826000803373ffffffffffffffffffffffffffffffffffffffff1673ffffffffffffffffffffffffffffffffffffffff16815260200190815260200160002060040160008282540192505081905550610493565b60008060003373ffffffffffffffffffffffffffffffffffffffff1673ffffffffffffffffffffffffffffffffffffffff168152602001908152602001600020600401819055505b6104a0565b816002819055505b6101f46000803373ffffffffffffffffffffffffffffffffffffffff1673ffffffffffffffffffffffffffffffffffffffff1681526020019081526020016000206004015411156105335760016000803373ffffffffffffffffffffffffffffffffffffffff1673ffffffffffffffffffffffffffffffffffffffff168152602001908152602001600020600201819055505b5050505050565b6000826000803373ffffffffffffffffffffffffffffffffffffffff1673ffffffffffffffffffffffffffffffffffffffff16815260200190815260200160002060000181905550816000803373ffffffffffffffffffffffffffffffffffffffff1673ffffffffffffffffffffffffffffffffffffffff1681526020019081526020016000206001018190555060008060003373ffffffffffffffffffffffffffffffffffffffff1673ffffffffffffffffffffffffffffffffffffffff1681526020019081526020016000206002018190555060008060003373ffffffffffffffffffffffffffffffffffffffff1673ffffffffffffffffffffffffffffffffffffffff1681526020019081526020016000206003018190555092915050565b60008111151561066b57600080fd5b7f161432da222a0c2b422d1a037f130795d6526cc2b1d3e0ce1aba03669123d3193382604051808373ffffffffffffffffffffffffffffffffffffffff1673ffffffffffffffffffffffffffffffffffffffff1681526020018281526020019250505060405180910390a1806000803373ffffffffffffffffffffffffffffffffffffffff1673ffffffffffffffffffffffffffffffffffffffff1681526020019081526020016000206003016000828254019250508190555050565b6000806000610744620151808581151561073e57fe5b04610756565b80935081945082955050505050915091565b600080600080849050600062253d8c62010bd98301019050600062023ab18260040281151561078157fe5b059050600460038262023ab1020181151561079857fe5b0582039150600062164b0960018401610fa0028115156107b457fe5b059050601f6004826105b5028115156107c957fe5b058403019250600061098f846050028115156107e157fe5b059050600060508261098f028115156107f657fe5b0585039050600b8281151561080757fe5b05945084600c026002830103915084836031860360640201019250829850819750809650505050505050919390925056fea165627a7a72305820dcfe6d54afd99f5ed14b6803384a50e8235f4b92585e3d40347d0def931eaaff0029",
  "source": "pragma solidity >= 0.4.22 < 0.6.0;\n\nimport {DateTimeLib} from \"./DateTimeLib.sol\";\n\ncontract ABC {\n  struct shopperInfo {\n    uint age;\n    uint gender;   //0 ?, 1 male, 2 female\n    uint status;   //0 normal, 1 elite\n    uint balance;\n    uint monthlySpending;\n  }\n  mapping (address => shopperInfo) private shopper;\n  event buyUSDToken(address, uint);\n\n  struct goodsInfo {\n    uint price;      //use 2 decimal place\n    uint ageLimit;\n    uint genderLimit;  //0 no limit, 1 male only, 2 female only\n    uint returnDays;   //0: cannot return, 1 to n: number of days\n  }\n  mapping (bytes32 => goodsInfo) private goods;\n  uint yearRecord;\n  uint monthRecord;\n\n  constructor() public {\n    addGoods(\"apple\", 150, 0, 0, 0);\n    (yearRecord, monthRecord) = DateTimeLib.getMonthYear(now);\n  }\n\n  function register(uint _age, uint _gender) public returns(address) {\n    shopper[msg.sender].age = _age;\n    shopper[msg.sender].gender = _gender;\n    shopper[msg.sender].status = 0;\n    shopper[msg.sender].balance = 0;\n  }\n\n  function buyUSDTokens(uint _amount) public {\n    require(_amount > 0);\n    emit buyUSDToken(msg.sender, _amount);\n    shopper[msg.sender].balance += _amount;\n  }\n\n  function addGoods(bytes32 _name, uint _price, uint _ageLimit,\n      uint _genderLimit, uint _returnDays) public {\n    goods[_name].price = _price;\n    goods[_name].ageLimit = _ageLimit;\n    goods[_name].genderLimit = _genderLimit;\n    goods[_name].returnDays = _returnDays;\n  }\n\n  function buyGoods(bytes32 _name, uint _quantity) public {\n    uint spending;\n    uint year;\n    uint month;\n\n    if (_name == \"apple\") {\n      require(shopper[msg.sender].age > 21);\n\n    }\n    else if (_name == \"beer\") {\n      require(shopper[msg.sender].gender == 1);\n    }\n\n    spending = _quantity*goods[_name].price/2;\n    shopper[msg.sender].balance -= spending;\n\n    //calculate monthlySpending\n    (year, month) = DateTimeLib.getMonthYear(now);\n    if (year == yearRecord) {\n      if (month == monthRecord) {\n        shopper[msg.sender].monthlySpending += spending;\n      }\n      else {\n        shopper[msg.sender].monthlySpending = 0;\n      }\n    }\n    else {\n      yearRecord = year;\n    }\n\n    //check monthlySpending status\n    if (shopper[msg.sender].monthlySpending > 500)\n      shopper[msg.sender].status = 1;  //elite\n  }\n\n  function monthEndReward() public {\n\n  }\n\n}\n",
  "sourcePath": "/home/vic/workspace/sinosun/SmartContract/ABC/contracts/ABC.sol",
  "compiler": {
    "name": "solc",
    "version": "0.5.1+commit.c8a2cb62.Emscripten.clang"
  },
  "schemaVersion": "3.0.6",
  "updatedAt": "2019-05-14T11:24:35.445Z",
  "devdoc": {
    "methods": {}
  },
  "userdoc": {
    "methods": {}
  }
}