{
  "contractName": "ICOToken",
  "abi": [
    {
      "constant": true,
      "inputs": [],
      "name": "name",
      "outputs": [
        {
          "name": "",
          "type": "string"
        }
      ],
      "payable": false,
      "stateMutability": "view",
      "type": "function"
    },
    {
      "constant": true,
      "inputs": [],
      "name": "totalSupplyLimit_",
      "outputs": [
        {
          "name": "",
          "type": "uint256"
        }
      ],
      "payable": false,
      "stateMutability": "view",
      "type": "function"
    },
    {
      "constant": true,
      "inputs": [],
      "name": "totalSupply",
      "outputs": [
        {
          "name": "",
          "type": "uint256"
        }
      ],
      "payable": false,
      "stateMutability": "view",
      "type": "function"
    },
    {
      "constant": true,
      "inputs": [],
      "name": "decimals",
      "outputs": [
        {
          "name": "",
          "type": "uint256"
        }
      ],
      "payable": false,
      "stateMutability": "view",
      "type": "function"
    },
    {
      "constant": true,
      "inputs": [],
      "name": "crowdsaleAddress",
      "outputs": [
        {
          "name": "",
          "type": "address"
        }
      ],
      "payable": false,
      "stateMutability": "view",
      "type": "function"
    },
    {
      "constant": true,
      "inputs": [
        {
          "name": "_owner",
          "type": "address"
        }
      ],
      "name": "balanceOf",
      "outputs": [
        {
          "name": "",
          "type": "uint256"
        }
      ],
      "payable": false,
      "stateMutability": "view",
      "type": "function"
    },
    {
      "constant": true,
      "inputs": [],
      "name": "owner",
      "outputs": [
        {
          "name": "",
          "type": "address"
        }
      ],
      "payable": false,
      "stateMutability": "view",
      "type": "function"
    },
    {
      "constant": true,
      "inputs": [],
      "name": "symbol",
      "outputs": [
        {
          "name": "",
          "type": "string"
        }
      ],
      "payable": false,
      "stateMutability": "view",
      "type": "function"
    },
    {
      "constant": true,
      "inputs": [],
      "name": "ICOEndTime",
      "outputs": [
        {
          "name": "",
          "type": "uint256"
        }
      ],
      "payable": false,
      "stateMutability": "view",
      "type": "function"
    },
    {
      "constant": true,
      "inputs": [
        {
          "name": "_owner",
          "type": "address"
        },
        {
          "name": "_spender",
          "type": "address"
        }
      ],
      "name": "allowance",
      "outputs": [
        {
          "name": "",
          "type": "uint256"
        }
      ],
      "payable": false,
      "stateMutability": "view",
      "type": "function"
    },
    {
      "inputs": [],
      "payable": false,
      "stateMutability": "nonpayable",
      "type": "constructor"
    },
    {
      "anonymous": false,
      "inputs": [
        {
          "indexed": false,
          "name": "",
          "type": "address"
        },
        {
          "indexed": false,
          "name": "",
          "type": "address"
        },
        {
          "indexed": false,
          "name": "",
          "type": "uint256"
        }
      ],
      "name": "BuyToken",
      "type": "event"
    },
    {
      "anonymous": false,
      "inputs": [
        {
          "indexed": true,
          "name": "from",
          "type": "address"
        },
        {
          "indexed": true,
          "name": "to",
          "type": "address"
        },
        {
          "indexed": false,
          "name": "value",
          "type": "uint256"
        }
      ],
      "name": "Transfer",
      "type": "event"
    },
    {
      "anonymous": false,
      "inputs": [
        {
          "indexed": true,
          "name": "owner",
          "type": "address"
        },
        {
          "indexed": true,
          "name": "spender",
          "type": "address"
        },
        {
          "indexed": false,
          "name": "value",
          "type": "uint256"
        }
      ],
      "name": "Approval",
      "type": "event"
    },
    {
      "constant": false,
      "inputs": [
        {
          "name": "_crowdsaleAddress",
          "type": "address"
        }
      ],
      "name": "setCrowdsale",
      "outputs": [],
      "payable": false,
      "stateMutability": "nonpayable",
      "type": "function"
    },
    {
      "constant": false,
      "inputs": [
        {
          "name": "_receiver",
          "type": "address"
        },
        {
          "name": "_amount",
          "type": "uint256"
        }
      ],
      "name": "buyTokens",
      "outputs": [],
      "payable": false,
      "stateMutability": "nonpayable",
      "type": "function"
    },
    {
      "constant": false,
      "inputs": [
        {
          "name": "_to",
          "type": "address"
        },
        {
          "name": "_value",
          "type": "uint256"
        }
      ],
      "name": "transfer",
      "outputs": [
        {
          "name": "",
          "type": "bool"
        }
      ],
      "payable": false,
      "stateMutability": "nonpayable",
      "type": "function"
    },
    {
      "constant": false,
      "inputs": [
        {
          "name": "_from",
          "type": "address"
        },
        {
          "name": "_to",
          "type": "address"
        },
        {
          "name": "_value",
          "type": "uint256"
        }
      ],
      "name": "transferFrom",
      "outputs": [
        {
          "name": "",
          "type": "bool"
        }
      ],
      "payable": false,
      "stateMutability": "nonpayable",
      "type": "function"
    },
    {
      "constant": false,
      "inputs": [
        {
          "name": "_spender",
          "type": "address"
        },
        {
          "name": "_value",
          "type": "uint256"
        }
      ],
      "name": "approve",
      "outputs": [
        {
          "name": "",
          "type": "bool"
        }
      ],
      "payable": false,
      "stateMutability": "nonpayable",
      "type": "function"
    },
    {
      "constant": false,
      "inputs": [
        {
          "name": "_spender",
          "type": "address"
        },
        {
          "name": "_addedValue",
          "type": "uint256"
        }
      ],
      "name": "increaseApproval",
      "outputs": [
        {
          "name": "success",
          "type": "bool"
        }
      ],
      "payable": false,
      "stateMutability": "nonpayable",
      "type": "function"
    },
    {
      "constant": false,
      "inputs": [
        {
          "name": "_spender",
          "type": "address"
        },
        {
          "name": "_subtractedValue",
          "type": "uint256"
        }
      ],
      "name": "decreaseApproval",
      "outputs": [
        {
          "name": "success",
          "type": "bool"
        }
      ],
      "payable": false,
      "stateMutability": "nonpayable",
      "type": "function"
    },
    {
      "constant": false,
      "inputs": [],
      "name": "emergencyExtract",
      "outputs": [],
      "payable": false,
      "stateMutability": "nonpayable",
      "type": "function"
    },
    {
      "constant": true,
      "inputs": [],
      "name": "returnICOEndTime",
      "outputs": [
        {
          "name": "",
          "type": "uint256"
        }
      ],
      "payable": false,
      "stateMutability": "view",
      "type": "function"
    }
  ],
  "bytecode": "0x60806040526040805190810160405280600f81526020017f53696e6f73756e49434f546f6b656e0000000000000000000000000000000000815250600390805190602001906200005192919062000129565b506040805190810160405280600a81526020017f53696e6f73756e49434f00000000000000000000000000000000000000000000815250600490805190602001906200009f92919062000129565b506012600555348015620000b257600080fd5b506a52b7d2dcc80cd2e400000060098190555033600760006101000a81548173ffffffffffffffffffffffffffffffffffffffff021916908373ffffffffffffffffffffffffffffffffffffffff16021790555063983c64da6008819055506a52b7d2dcc80cd2e4000000600181905550620001d8565b828054600181600116156101000203166002900490600052602060002090601f016020900481019282601f106200016c57805160ff19168380011785556200019d565b828001600101855582156200019d579182015b828111156200019c5782518255916020019190600101906200017f565b5b509050620001ac9190620001b0565b5090565b620001d591905b80821115620001d1576000816000905550600101620001b7565b5090565b90565b6118b180620001e86000396000f3fe608060405260043610610101576000357c01000000000000000000000000000000000000000000000000000000009004806306fdde03146101065780630752881a14610196578063095ea7b3146101f15780631273e2281461026457806318160ddd1461028f57806323b872dd146102ba578063313ce5671461034d57806331d2f89114610378578063483a20b2146103cf5780635fa5127714610420578063661884631461043757806370a08231146104aa5780638da5cb5b1461050f57806395d89b4114610566578063972276d0146105f6578063a242f04914610621578063a9059cbb1461064c578063d73dd623146106bf578063dd62ed3e14610732575b600080fd5b34801561011257600080fd5b5061011b6107b7565b6040518080602001828103825283818151815260200191508051906020019080838360005b8381101561015b578082015181840152602081019050610140565b50505050905090810190601f1680156101885780820380516001836020036101000a031916815260200191505b509250505060405180910390f35b3480156101a257600080fd5b506101ef600480360360408110156101b957600080fd5b81019080803573ffffffffffffffffffffffffffffffffffffffff16906020019092919080359060200190929190505050610855565b005b3480156101fd57600080fd5b5061024a6004803603604081101561021457600080fd5b81019080803573ffffffffffffffffffffffffffffffffffffffff16906020019092919080359060200190929190505050610993565b604051808215151515815260200191505060405180910390f35b34801561027057600080fd5b506102796109a7565b6040518082815260200191505060405180910390f35b34801561029b57600080fd5b506102a46109ad565b6040518082815260200191505060405180910390f35b3480156102c657600080fd5b50610333600480360360608110156102dd57600080fd5b81019080803573ffffffffffffffffffffffffffffffffffffffff169060200190929190803573ffffffffffffffffffffffffffffffffffffffff169060200190929190803590602001909291905050506109b7565b604051808215151515815260200191505060405180910390f35b34801561035957600080fd5b506103626109cd565b6040518082815260200191505060405180910390f35b34801561038457600080fd5b5061038d6109d3565b604051808273ffffffffffffffffffffffffffffffffffffffff1673ffffffffffffffffffffffffffffffffffffffff16815260200191505060405180910390f35b3480156103db57600080fd5b5061041e600480360360208110156103f257600080fd5b81019080803573ffffffffffffffffffffffffffffffffffffffff1690602001909291905050506109f9565b005b34801561042c57600080fd5b50610435610ad5565b005b34801561044357600080fd5b506104906004803603604081101561045a57600080fd5b81019080803573ffffffffffffffffffffffffffffffffffffffff16906020019092919080359060200190929190505050610bb3565b604051808215151515815260200191505060405180910390f35b3480156104b657600080fd5b506104f9600480360360208110156104cd57600080fd5b81019080803573ffffffffffffffffffffffffffffffffffffffff169060200190929190505050610c2f565b6040518082815260200191505060405180910390f35b34801561051b57600080fd5b50610524610c77565b604051808273ffffffffffffffffffffffffffffffffffffffff1673ffffffffffffffffffffffffffffffffffffffff16815260200191505060405180910390f35b34801561057257600080fd5b5061057b610c9d565b6040518080602001828103825283818151815260200191508051906020019080838360005b838110156105bb5780820151818401526020810190506105a0565b50505050905090810190601f1680156105e85780820380516001836020036101000a031916815260200191505b509250505060405180910390f35b34801561060257600080fd5b5061060b610d3b565b6040518082815260200191505060405180910390f35b34801561062d57600080fd5b50610636610d45565b6040518082815260200191505060405180910390f35b34801561065857600080fd5b506106a56004803603604081101561066f57600080fd5b81019080803573ffffffffffffffffffffffffffffffffffffffff16906020019092919080359060200190929190505050610d4b565b604051808215151515815260200191505060405180910390f35b3480156106cb57600080fd5b50610718600480360360408110156106e257600080fd5b81019080803573ffffffffffffffffffffffffffffffffffffffff16906020019092919080359060200190929190505050610d5f565b604051808215151515815260200191505060405180910390f35b34801561073e57600080fd5b506107a16004803603604081101561075557600080fd5b81019080803573ffffffffffffffffffffffffffffffffffffffff169060200190929190803573ffffffffffffffffffffffffffffffffffffffff169060200190929190505050610ddb565b6040518082815260200191505060405180910390f35b60038054600181600116156101000203166002900480601f01602080910402602001604051908101604052809291908181526020018280546001816001161561010002031660029004801561084d5780601f106108225761010080835404028352916020019161084d565b820191906000526020600020905b81548152906001019060200180831161083057829003601f168201915b505050505081565b600073ffffffffffffffffffffffffffffffffffffffff168273ffffffffffffffffffffffffffffffffffffffff161415151561089157600080fd5b6000811115156108a057600080fd5b7fa5ff468a42a1c7f5a78dd6683a9722f1ef3c388d590959bbd7a6d2c837fcab07600760009054906101000a900473ffffffffffffffffffffffffffffffffffffffff168383604051808473ffffffffffffffffffffffffffffffffffffffff1673ffffffffffffffffffffffffffffffffffffffff1681526020018373ffffffffffffffffffffffffffffffffffffffff1673ffffffffffffffffffffffffffffffffffffffff168152602001828152602001935050505060405180910390a161098e600760009054906101000a900473ffffffffffffffffffffffffffffffffffffffff1683836109b7565b505050565b600061099f8383610e62565b905092915050565b60095481565b6000600154905090565b60006109c4848484610f54565b90509392505050565b60055481565b600660009054906101000a900473ffffffffffffffffffffffffffffffffffffffff1681565b600760009054906101000a900473ffffffffffffffffffffffffffffffffffffffff1673ffffffffffffffffffffffffffffffffffffffff163373ffffffffffffffffffffffffffffffffffffffff16141515610a5557600080fd5b600073ffffffffffffffffffffffffffffffffffffffff168173ffffffffffffffffffffffffffffffffffffffff1614151515610a9157600080fd5b80600660006101000a81548173ffffffffffffffffffffffffffffffffffffffff021916908373ffffffffffffffffffffffffffffffffffffffff16021790555050565b600760009054906101000a900473ffffffffffffffffffffffffffffffffffffffff1673ffffffffffffffffffffffffffffffffffffffff163373ffffffffffffffffffffffffffffffffffffffff16141515610b3157600080fd5b600760009054906101000a900473ffffffffffffffffffffffffffffffffffffffff1673ffffffffffffffffffffffffffffffffffffffff166108fc3073ffffffffffffffffffffffffffffffffffffffff16319081150290604051600060405180830381858888f19350505050158015610bb0573d6000803e3d6000fd5b50565b6000600854421180610c125750600660009054906101000a900473ffffffffffffffffffffffffffffffffffffffff1673ffffffffffffffffffffffffffffffffffffffff163373ffffffffffffffffffffffffffffffffffffffff16145b1515610c1d57600080fd5b610c2783836111a2565b905092915050565b60008060008373ffffffffffffffffffffffffffffffffffffffff1673ffffffffffffffffffffffffffffffffffffffff168152602001908152602001600020549050919050565b600760009054906101000a900473ffffffffffffffffffffffffffffffffffffffff1681565b60048054600181600116156101000203166002900480601f016020809104026020016040519081016040528092919081815260200182805460018160011615610100020316600290048015610d335780601f10610d0857610100808354040283529160200191610d33565b820191906000526020600020905b815481529060010190602001808311610d1657829003601f168201915b505050505081565b6000600854905090565b60085481565b6000610d578383611434565b905092915050565b6000600854421180610dbe5750600660009054906101000a900473ffffffffffffffffffffffffffffffffffffffff1673ffffffffffffffffffffffffffffffffffffffff163373ffffffffffffffffffffffffffffffffffffffff16145b1515610dc957600080fd5b610dd38383611654565b905092915050565b6000600260008473ffffffffffffffffffffffffffffffffffffffff1673ffffffffffffffffffffffffffffffffffffffff16815260200190815260200160002060008373ffffffffffffffffffffffffffffffffffffffff1673ffffffffffffffffffffffffffffffffffffffff16815260200190815260200160002054905092915050565b600081600260003373ffffffffffffffffffffffffffffffffffffffff1673ffffffffffffffffffffffffffffffffffffffff16815260200190815260200160002060008573ffffffffffffffffffffffffffffffffffffffff1673ffffffffffffffffffffffffffffffffffffffff168152602001908152602001600020819055508273ffffffffffffffffffffffffffffffffffffffff163373ffffffffffffffffffffffffffffffffffffffff167f8c5be1e5ebec7d5bd14f71427d1e84f3dd0314c0f7b2291e5b200ac8c7c3b925846040518082815260200191505060405180910390a36001905092915050565b60008060008573ffffffffffffffffffffffffffffffffffffffff1673ffffffffffffffffffffffffffffffffffffffff16815260200190815260200160002054821115151561100c576040517f08c379a00000000000000000000000000000000000000000000000000000000081526004018080602001828103825260128152602001807f4e6f7420656e6f7567682062616c616e6365000000000000000000000000000081525060200191505060405180910390fd5b61105d826000808773ffffffffffffffffffffffffffffffffffffffff1673ffffffffffffffffffffffffffffffffffffffff1681526020019081526020016000205461185090919063ffffffff16565b6000808673ffffffffffffffffffffffffffffffffffffffff1673ffffffffffffffffffffffffffffffffffffffff168152602001908152602001600020819055506110f0826000808673ffffffffffffffffffffffffffffffffffffffff1673ffffffffffffffffffffffffffffffffffffffff1681526020019081526020016000205461186990919063ffffffff16565b6000808573ffffffffffffffffffffffffffffffffffffffff1673ffffffffffffffffffffffffffffffffffffffff168152602001908152602001600020819055508273ffffffffffffffffffffffffffffffffffffffff168473ffffffffffffffffffffffffffffffffffffffff167fddf252ad1be2c89b69c2b068fc378daa952ba7f163c4a11628f55a4df523b3ef846040518082815260200191505060405180910390a3600190509392505050565b600080600260003373ffffffffffffffffffffffffffffffffffffffff1673ffffffffffffffffffffffffffffffffffffffff16815260200190815260200160002060008573ffffffffffffffffffffffffffffffffffffffff1673ffffffffffffffffffffffffffffffffffffffff16815260200190815260200160002054905080831015156112b4576000600260003373ffffffffffffffffffffffffffffffffffffffff1673ffffffffffffffffffffffffffffffffffffffff16815260200190815260200160002060008673ffffffffffffffffffffffffffffffffffffffff1673ffffffffffffffffffffffffffffffffffffffff16815260200190815260200160002081905550611348565b6112c7838261185090919063ffffffff16565b600260003373ffffffffffffffffffffffffffffffffffffffff1673ffffffffffffffffffffffffffffffffffffffff16815260200190815260200160002060008673ffffffffffffffffffffffffffffffffffffffff1673ffffffffffffffffffffffffffffffffffffffff168152602001908152602001600020819055505b8373ffffffffffffffffffffffffffffffffffffffff163373ffffffffffffffffffffffffffffffffffffffff167f8c5be1e5ebec7d5bd14f71427d1e84f3dd0314c0f7b2291e5b200ac8c7c3b925600260003373ffffffffffffffffffffffffffffffffffffffff1673ffffffffffffffffffffffffffffffffffffffff16815260200190815260200160002060008873ffffffffffffffffffffffffffffffffffffffff1673ffffffffffffffffffffffffffffffffffffffff168152602001908152602001600020546040518082815260200191505060405180910390a3600191505092915050565b60008060003373ffffffffffffffffffffffffffffffffffffffff1673ffffffffffffffffffffffffffffffffffffffff16815260200190815260200160002054821115151561148357600080fd5b600073ffffffffffffffffffffffffffffffffffffffff168373ffffffffffffffffffffffffffffffffffffffff16141515156114bf57600080fd5b611510826000803373ffffffffffffffffffffffffffffffffffffffff1673ffffffffffffffffffffffffffffffffffffffff1681526020019081526020016000205461185090919063ffffffff16565b6000803373ffffffffffffffffffffffffffffffffffffffff1673ffffffffffffffffffffffffffffffffffffffff168152602001908152602001600020819055506115a3826000808673ffffffffffffffffffffffffffffffffffffffff1673ffffffffffffffffffffffffffffffffffffffff1681526020019081526020016000205461186990919063ffffffff16565b6000808573ffffffffffffffffffffffffffffffffffffffff1673ffffffffffffffffffffffffffffffffffffffff168152602001908152602001600020819055508273ffffffffffffffffffffffffffffffffffffffff163373ffffffffffffffffffffffffffffffffffffffff167fddf252ad1be2c89b69c2b068fc378daa952ba7f163c4a11628f55a4df523b3ef846040518082815260200191505060405180910390a36001905092915050565b60006116e582600260003373ffffffffffffffffffffffffffffffffffffffff1673ffffffffffffffffffffffffffffffffffffffff16815260200190815260200160002060008673ffffffffffffffffffffffffffffffffffffffff1673ffffffffffffffffffffffffffffffffffffffff1681526020019081526020016000205461186990919063ffffffff16565b600260003373ffffffffffffffffffffffffffffffffffffffff1673ffffffffffffffffffffffffffffffffffffffff16815260200190815260200160002060008573ffffffffffffffffffffffffffffffffffffffff1673ffffffffffffffffffffffffffffffffffffffff168152602001908152602001600020819055508273ffffffffffffffffffffffffffffffffffffffff163373ffffffffffffffffffffffffffffffffffffffff167f8c5be1e5ebec7d5bd14f71427d1e84f3dd0314c0f7b2291e5b200ac8c7c3b925600260003373ffffffffffffffffffffffffffffffffffffffff1673ffffffffffffffffffffffffffffffffffffffff16815260200190815260200160002060008773ffffffffffffffffffffffffffffffffffffffff1673ffffffffffffffffffffffffffffffffffffffff168152602001908152602001600020546040518082815260200191505060405180910390a36001905092915050565b600082821115151561185e57fe5b818303905092915050565b6000818301905082811015151561187c57fe5b8090509291505056fea165627a7a72305820a52f7df53b0c3beee164e613c9ca4544c50c0b50c2ea2379fdee8412ac828d1d0029",
  "source": "pragma solidity >= 0.4.22 < 0.6.0;\n\nlibrary SafeMath {\n    function mul(uint256 a, uint256 b) internal pure returns (uint256 c) {\n      // Gas optimization: this is cheaper than asserting 'a' not being zero, but the\n      // benefit is lost if 'b' is also tested.\n      // See: https://github.com/OpenZeppelin/openzeppelin-solidity/pull/522\n      if (a == 0) {\n        return 0;\n      }\n      c = a * b;\n      assert(c / a == b);\n      return c;\n    }\n\n    function div(uint256 a, uint256 b) internal pure returns (uint256) {\n      // assert(b > 0); // Solidity automatically throws when dividing by 0\n      // uint256 c = a / b;\n      // assert(a == b * c + a % b); // There is no case in which this doesn't hold\n      return a / b;\n    }\n\n    function sub(uint256 a, uint256 b) internal pure returns (uint256) {\n      assert(b <= a);\n      return a - b;\n    }\n\n    function add(uint256 a, uint256 b) internal pure returns (uint256 c) {\n      c = a + b;\n      assert(c >= a);\n      return c;\n    }\n}\n\ncontract Token {\n    using SafeMath for uint256;\n    event Transfer(address indexed from, address indexed to, uint256 value);\n    event Approval(address indexed owner, address indexed spender, uint256 value);\n    mapping(address => uint256) balances;\n    uint256 totalSupply_;\n    mapping (address => mapping (address => uint256)) internal allowed;\n\n    function totalSupply() public view returns (uint256) {\n      return totalSupply_;\n    }\n\n    function balanceOf(address _owner) public view returns (uint256) {\n      return balances[_owner];\n    }\n\n    function transfer(address _to, uint256 _value) public returns (bool) {\n      require(_value <= balances[msg.sender]);\n      require(_to != address(0));\n      balances[msg.sender] = balances[msg.sender].sub(_value);\n      balances[_to] = balances[_to].add(_value);\n      emit Transfer(msg.sender, _to, _value);\n      return true;\n    }\n\n    function transferFrom(address _from, address _to, uint256 _value) public returns (bool) {\n      require(_value <= balances[_from], \"Not enough balance\");\n      //require(_value <= allowed[_from][msg.sender]);\n      //require(_to != address(0));\n      balances[_from] = balances[_from].sub(_value);\n      balances[_to] = balances[_to].add(_value);\n      //allowed[_from][msg.sender] = allowed[_from][msg.sender].sub(_value);\n      emit Transfer(_from, _to, _value);\n      return true;\n    }\n\n    function approve(address _spender, uint256 _value) public returns (bool) {\n      allowed[msg.sender][_spender] = _value;\n      emit Approval(msg.sender, _spender, _value);\n      return true;\n    }\n\n    function allowance(address _owner,address _spender) public view returns (uint256) {\n      return allowed[_owner][_spender];\n    }\n\n    function increaseApproval(address _spender, uint256 _addedValue)\n        public returns (bool) {\n      allowed[msg.sender][_spender] = (allowed[msg.sender][_spender].add(_addedValue));\n      emit Approval(msg.sender, _spender, allowed[msg.sender][_spender]);\n      return true;\n    }\n\n    function decreaseApproval(address _spender, uint256 _subtractedValue)\n        public returns (bool) {\n      uint256 oldValue = allowed[msg.sender][_spender];\n      if (_subtractedValue >= oldValue) {\n        allowed[msg.sender][_spender] = 0;\n      } else {\n        allowed[msg.sender][_spender] = oldValue.sub(_subtractedValue);\n      }\n\n      emit Approval(msg.sender, _spender, allowed[msg.sender][_spender]);\n      return true;\n    }\n}\n\ncontract ICOToken is Token {\n    string public name = 'SinosunICOToken';\n    string public symbol = 'SinosunICO';\n    uint256 public decimals = 18;\n    address public crowdsaleAddress;\n    address payable public owner;\n    uint256 public ICOEndTime;\n    uint256 public totalSupplyLimit_;\n    event BuyToken(address, address, uint256);\n\n    modifier onlyCrowdsale {\n      require(msg.sender == crowdsaleAddress);\n      _;\n    }\n\n    modifier onlyOwner {\n      require(msg.sender == owner);\n      _;\n    }\n\n    modifier afterCrowdsale {\n      require(now > ICOEndTime || msg.sender == crowdsaleAddress);\n      _;\n    }\n\n    constructor (\n          //uint256 _ICOOEndTime\n        )  public Token() {\n      //require(_ICOEndTime > 0);\n      totalSupplyLimit_ = 100e24;\n      owner = msg.sender;\n      //a dummy date, Thursday, 8 December 2050 06:46:50\n      //just for testing\n      ICOEndTime = 2554094810;  //STOEndTime = _STOEndTime;\n      totalSupply_ = 100e24;\n    }\n\n    function setCrowdsale(address _crowdsaleAddress) public onlyOwner {\n      require(_crowdsaleAddress != address(0));\n      crowdsaleAddress = _crowdsaleAddress;\n    }\n\n    function buyTokens(address _receiver, uint256 _amount) public {\n      require(_receiver != address(0));\n      require(_amount > 0);\n      emit BuyToken(owner, _receiver, _amount);\n      transferFrom(owner, _receiver, _amount);\n    }\n\n    /// @notice Override the functions to not allow token transfers until the end\n    function transfer(address _to, uint256 _value) public returns(bool) {\n      return super.transfer(_to, _value);\n    }\n\n    /// @notice Override the functions to not allow token transfers until the end\n    function transferFrom(address _from, address _to, uint256 _value) public\n        returns(bool) {\n      return super.transferFrom(_from, _to, _value);\n    }\n\n    /// @notice Override the functions to not allow token transfers until the end\n    function approve(address _spender, uint256 _value) public returns(bool) {\n      return super.approve(_spender, _value);\n    }\n\n    /// @notice Override the functions to not allow token transfers until the end\n    function increaseApproval(address _spender, uint _addedValue) public afterCrowdsale\n        returns(bool success) {\n      return super.increaseApproval(_spender, _addedValue);\n    }\n\n    /// @notice Override the functions to not allow token transfers until the end\n    function decreaseApproval(address _spender, uint _subtractedValue) public afterCrowdsale\n        returns(bool success) {\n      return super.decreaseApproval(_spender, _subtractedValue);\n    }\n\n    function emergencyExtract() external onlyOwner {\n      owner.transfer(address(this).balance);\n    }\n\n    function returnICOEndTime() external view returns (uint256) {\n      return ICOEndTime;\n    }\n}\n\ncontract CrowdSale {\n    bool icoCompleted;\n    uint256 public icoStartTime;\n    uint256 public icoEndTime;\n    uint256 public tokenRate;\n    address public tokenAddress;\n    uint256 public fundingGoal;\n    address payable public owner;\n    ICOToken public token;\n    uint256 public tokensRaised;\n    uint256 public etherRaised;\n\n    modifier whenIcoCompleted {\n      require(icoCompleted);\n      _;\n    }\n\n    modifier onlyOwner {\n      require(msg.sender == owner);\n      _;\n    }\n\n    modifier lockupPeriod {\n      require(now < icoEndTime && now > icoStartTime);\n      _;\n    }\n\n    constructor(\n        /**uint256 _icoStart,\n        uint256 _icoEnd,\n        uint256 _tokenRate,\n        uint256 _fundingGoal,*/\n        address _tokenAddress)  public {\n      require(_tokenAddress != address(0));\n      /** require(\n        _icoStart != 0 &&\n        _icoEnd != 0 &&\n        _icoStart < _icoEnd &&\n        _tokenRate != 0 &&\n        _tokenAddress != address(0) &&\n        _fundingGoal != 0); */\n      icoStartTime = 0;\n      tokenRate = 1000000000;\n      fundingGoal = 100000;\n\n      tokenAddress = _tokenAddress;\n      owner = msg.sender;\n      token = ICOToken(_tokenAddress);\n      icoEndTime = token.returnICOEndTime();\n    }\n\n    function () external payable {\n      buy();\n    }\n\n    function buy() public payable {\n\n      //require(tokensRaised < fundingGoal);\n      uint256 tokensToBuy;\n      uint256 etherUsed = msg.value;\n      tokensToBuy = msg.value * (10 ** token.decimals()) / 1 ether * tokenRate;\n      // Check if we have reached and exceeded the funding goal\n      // to refund the exceeding tokens and ether\n      //to be added?\n\n      // Send the tokens to the buyer\n      token.buyTokens(msg.sender, tokensToBuy);\n\n      // Increase the tokens raised and ether raised state variables\n      tokensRaised += tokensToBuy;\n      etherRaised += etherUsed;\n    }\n\n    function buyWithAddress(address _investor) public payable {\n\n      //require(tokensRaised < fundingGoal);\n      uint256 tokensToBuy;\n      uint256 etherUsed = msg.value;\n      tokensToBuy = msg.value * (10 ** token.decimals()) / 1 ether * tokenRate;\n      // Check if we have reached and exceeded the funding goal\n      // to refund the exceeding tokens and ether\n      //to be added?\n\n      // Send the tokens to the buyer\n      token.buyTokens(_investor, tokensToBuy);\n\n      // Increase the tokens raised and ether raised state variables\n      tokensRaised += tokensToBuy;\n      etherRaised += etherUsed;\n    }\n\n    function extractEther() public whenIcoCompleted onlyOwner {\n      owner.transfer(address(this).balance);\n    }\n}\n",
  "sourcePath": "/home/vic/workspace/sinosun/SmartContract/ICO/contracts/ICOToken.sol",
  "compiler": {
    "name": "solc",
    "version": "0.5.1+commit.c8a2cb62.Emscripten.clang"
  },
  "schemaVersion": "3.0.6",
  "updatedAt": "2019-04-24T02:38:35.753Z",
  "devdoc": {
    "methods": {}
  },
  "userdoc": {
    "methods": {
      "approve(address,uint256)": {
        "notice": "Override the functions to not allow token transfers until the end"
      },
      "decreaseApproval(address,uint256)": {
        "notice": "Override the functions to not allow token transfers until the end"
      },
      "increaseApproval(address,uint256)": {
        "notice": "Override the functions to not allow token transfers until the end"
      },
      "transfer(address,uint256)": {
        "notice": "Override the functions to not allow token transfers until the end"
      },
      "transferFrom(address,address,uint256)": {
        "notice": "Override the functions to not allow token transfers until the end"
      }
    }
  }
}