{
  "contractName": "STOToken",
  "abi": [
    {
      "constant": true,
      "inputs": [],
      "name": "name",
      "outputs": [
        {
          "name": "",
          "type": "string"
        }
      ],
      "payable": false,
      "stateMutability": "view",
      "type": "function"
    },
    {
      "constant": true,
      "inputs": [],
      "name": "totalSupplyLimit_",
      "outputs": [
        {
          "name": "",
          "type": "uint256"
        }
      ],
      "payable": false,
      "stateMutability": "view",
      "type": "function"
    },
    {
      "constant": true,
      "inputs": [],
      "name": "totalSupply",
      "outputs": [
        {
          "name": "",
          "type": "uint256"
        }
      ],
      "payable": false,
      "stateMutability": "view",
      "type": "function"
    },
    {
      "constant": true,
      "inputs": [
        {
          "name": "",
          "type": "address"
        }
      ],
      "name": "investorWhitelist",
      "outputs": [
        {
          "name": "",
          "type": "bool"
        }
      ],
      "payable": false,
      "stateMutability": "view",
      "type": "function"
    },
    {
      "constant": true,
      "inputs": [],
      "name": "decimals",
      "outputs": [
        {
          "name": "",
          "type": "uint256"
        }
      ],
      "payable": false,
      "stateMutability": "view",
      "type": "function"
    },
    {
      "constant": true,
      "inputs": [],
      "name": "crowdsaleAddress",
      "outputs": [
        {
          "name": "",
          "type": "address"
        }
      ],
      "payable": false,
      "stateMutability": "view",
      "type": "function"
    },
    {
      "constant": true,
      "inputs": [],
      "name": "STOEndTime",
      "outputs": [
        {
          "name": "",
          "type": "uint256"
        }
      ],
      "payable": false,
      "stateMutability": "view",
      "type": "function"
    },
    {
      "constant": true,
      "inputs": [
        {
          "name": "_owner",
          "type": "address"
        }
      ],
      "name": "balanceOf",
      "outputs": [
        {
          "name": "",
          "type": "uint256"
        }
      ],
      "payable": false,
      "stateMutability": "view",
      "type": "function"
    },
    {
      "constant": true,
      "inputs": [
        {
          "name": "",
          "type": "address"
        }
      ],
      "name": "shareholderWhitelist",
      "outputs": [
        {
          "name": "",
          "type": "bool"
        }
      ],
      "payable": false,
      "stateMutability": "view",
      "type": "function"
    },
    {
      "constant": true,
      "inputs": [],
      "name": "owner",
      "outputs": [
        {
          "name": "",
          "type": "address"
        }
      ],
      "payable": false,
      "stateMutability": "view",
      "type": "function"
    },
    {
      "constant": true,
      "inputs": [],
      "name": "symbol",
      "outputs": [
        {
          "name": "",
          "type": "string"
        }
      ],
      "payable": false,
      "stateMutability": "view",
      "type": "function"
    },
    {
      "constant": true,
      "inputs": [
        {
          "name": "_owner",
          "type": "address"
        },
        {
          "name": "_spender",
          "type": "address"
        }
      ],
      "name": "allowance",
      "outputs": [
        {
          "name": "",
          "type": "uint256"
        }
      ],
      "payable": false,
      "stateMutability": "view",
      "type": "function"
    },
    {
      "inputs": [],
      "payable": false,
      "stateMutability": "nonpayable",
      "type": "constructor"
    },
    {
      "anonymous": false,
      "inputs": [
        {
          "indexed": false,
          "name": "",
          "type": "address"
        },
        {
          "indexed": false,
          "name": "",
          "type": "address"
        },
        {
          "indexed": false,
          "name": "",
          "type": "uint256"
        }
      ],
      "name": "BuyToken",
      "type": "event"
    },
    {
      "anonymous": false,
      "inputs": [
        {
          "indexed": false,
          "name": "",
          "type": "address"
        },
        {
          "indexed": false,
          "name": "",
          "type": "uint256"
        }
      ],
      "name": "Minted",
      "type": "event"
    },
    {
      "anonymous": false,
      "inputs": [
        {
          "indexed": true,
          "name": "from",
          "type": "address"
        },
        {
          "indexed": true,
          "name": "to",
          "type": "address"
        },
        {
          "indexed": false,
          "name": "value",
          "type": "uint256"
        }
      ],
      "name": "Transfer",
      "type": "event"
    },
    {
      "anonymous": false,
      "inputs": [
        {
          "indexed": true,
          "name": "owner",
          "type": "address"
        },
        {
          "indexed": true,
          "name": "spender",
          "type": "address"
        },
        {
          "indexed": false,
          "name": "value",
          "type": "uint256"
        }
      ],
      "name": "Approval",
      "type": "event"
    },
    {
      "constant": false,
      "inputs": [
        {
          "name": "_shareholder",
          "type": "address"
        }
      ],
      "name": "addToShareholderWhiteList",
      "outputs": [],
      "payable": false,
      "stateMutability": "nonpayable",
      "type": "function"
    },
    {
      "constant": false,
      "inputs": [
        {
          "name": "_investor",
          "type": "address"
        }
      ],
      "name": "addToInvestorWhiteList",
      "outputs": [],
      "payable": false,
      "stateMutability": "nonpayable",
      "type": "function"
    },
    {
      "constant": true,
      "inputs": [
        {
          "name": "_investor",
          "type": "address"
        }
      ],
      "name": "checkInvestorWhitelist",
      "outputs": [
        {
          "name": "",
          "type": "bool"
        }
      ],
      "payable": false,
      "stateMutability": "view",
      "type": "function"
    },
    {
      "constant": false,
      "inputs": [
        {
          "name": "_to",
          "type": "address"
        },
        {
          "name": "_value",
          "type": "uint256"
        }
      ],
      "name": "mint",
      "outputs": [
        {
          "name": "",
          "type": "bool"
        }
      ],
      "payable": false,
      "stateMutability": "nonpayable",
      "type": "function"
    },
    {
      "constant": true,
      "inputs": [
        {
          "name": "_from",
          "type": "address"
        },
        {
          "name": "_to",
          "type": "address"
        },
        {
          "name": "_value",
          "type": "uint256"
        }
      ],
      "name": "verifyTransfer",
      "outputs": [
        {
          "name": "",
          "type": "bool"
        }
      ],
      "payable": false,
      "stateMutability": "view",
      "type": "function"
    },
    {
      "constant": false,
      "inputs": [
        {
          "name": "_crowdsaleAddress",
          "type": "address"
        }
      ],
      "name": "setCrowdsale",
      "outputs": [],
      "payable": false,
      "stateMutability": "nonpayable",
      "type": "function"
    },
    {
      "constant": false,
      "inputs": [
        {
          "name": "_receiver",
          "type": "address"
        },
        {
          "name": "_amount",
          "type": "uint256"
        }
      ],
      "name": "buyTokens",
      "outputs": [],
      "payable": false,
      "stateMutability": "nonpayable",
      "type": "function"
    },
    {
      "constant": false,
      "inputs": [
        {
          "name": "_to",
          "type": "address"
        },
        {
          "name": "_value",
          "type": "uint256"
        }
      ],
      "name": "transfer",
      "outputs": [
        {
          "name": "",
          "type": "bool"
        }
      ],
      "payable": false,
      "stateMutability": "nonpayable",
      "type": "function"
    },
    {
      "constant": false,
      "inputs": [
        {
          "name": "_from",
          "type": "address"
        },
        {
          "name": "_to",
          "type": "address"
        },
        {
          "name": "_value",
          "type": "uint256"
        }
      ],
      "name": "transferFrom",
      "outputs": [
        {
          "name": "",
          "type": "bool"
        }
      ],
      "payable": false,
      "stateMutability": "nonpayable",
      "type": "function"
    },
    {
      "constant": false,
      "inputs": [
        {
          "name": "_spender",
          "type": "address"
        },
        {
          "name": "_value",
          "type": "uint256"
        }
      ],
      "name": "approve",
      "outputs": [
        {
          "name": "",
          "type": "bool"
        }
      ],
      "payable": false,
      "stateMutability": "nonpayable",
      "type": "function"
    },
    {
      "constant": false,
      "inputs": [
        {
          "name": "_spender",
          "type": "address"
        },
        {
          "name": "_addedValue",
          "type": "uint256"
        }
      ],
      "name": "increaseApproval",
      "outputs": [
        {
          "name": "success",
          "type": "bool"
        }
      ],
      "payable": false,
      "stateMutability": "nonpayable",
      "type": "function"
    },
    {
      "constant": false,
      "inputs": [
        {
          "name": "_spender",
          "type": "address"
        },
        {
          "name": "_subtractedValue",
          "type": "uint256"
        }
      ],
      "name": "decreaseApproval",
      "outputs": [
        {
          "name": "success",
          "type": "bool"
        }
      ],
      "payable": false,
      "stateMutability": "nonpayable",
      "type": "function"
    },
    {
      "constant": false,
      "inputs": [],
      "name": "emergencyExtract",
      "outputs": [],
      "payable": false,
      "stateMutability": "nonpayable",
      "type": "function"
    },
    {
      "constant": true,
      "inputs": [],
      "name": "returnSTOEndTime",
      "outputs": [
        {
          "name": "",
          "type": "uint256"
        }
      ],
      "payable": false,
      "stateMutability": "view",
      "type": "function"
    }
  ],
  "bytecode": "0x60806040526040805190810160405280600c81526020017f53696e6f73756e546f6b656e000000000000000000000000000000000000000081525060039080519060200190620000519291906200020b565b506040805190810160405280600781526020017f53696e6f73756e00000000000000000000000000000000000000000000000000815250600490805190602001906200009f9291906200020b565b506012600555348015620000b257600080fd5b506a52b7d2dcc80cd2e400000060098190555033600760006101000a81548173ffffffffffffffffffffffffffffffffffffffff021916908373ffffffffffffffffffffffffffffffffffffffff16021790555063983c64da6008819055506001600a6000600760009054906101000a900473ffffffffffffffffffffffffffffffffffffffff1673ffffffffffffffffffffffffffffffffffffffff1673ffffffffffffffffffffffffffffffffffffffff16815260200190815260200160002060006101000a81548160ff0219169083151502179055506001600b6000600760009054906101000a900473ffffffffffffffffffffffffffffffffffffffff1673ffffffffffffffffffffffffffffffffffffffff1673ffffffffffffffffffffffffffffffffffffffff16815260200190815260200160002060006101000a81548160ff021916908315150217905550620002ba565b828054600181600116156101000203166002900490600052602060002090601f016020900481019282601f106200024e57805160ff19168380011785556200027f565b828001600101855582156200027f579182015b828111156200027e57825182559160200191906001019062000261565b5b5090506200028e919062000292565b5090565b620002b791905b80821115620002b357600081600090555060010162000299565b5090565b90565b611f5280620002ca6000396000f3fe60806040526004361061014e576000357c01000000000000000000000000000000000000000000000000000000009004806306fdde03146101535780630752881a146101e3578063095ea7b31461023e5780631273e228146102b1578063153e2752146102dc57806318160ddd146103455780631bf8060c1461037057806323b872dd146103d95780632d77bb441461046c578063313ce567146104bd57806331d2f891146104e857806340c10f191461053f578063458efd0d146105b2578063483a20b2146105dd5780635deaee4e1461062e5780635fa5127714610659578063661884631461067057806370a08231146106e357806385ea921d146107485780638da5cb5b146107b157806395d89b41146108085780639a4b1d5c14610898578063a9059cbb1461092b578063d73dd6231461099e578063dd62ed3e14610a11578063e68f5c1014610a96575b600080fd5b34801561015f57600080fd5b50610168610ae7565b6040518080602001828103825283818151815260200191508051906020019080838360005b838110156101a857808201518184015260208101905061018d565b50505050905090810190601f1680156101d55780820380516001836020036101000a031916815260200191505b509250505060405180910390f35b3480156101ef57600080fd5b5061023c6004803603604081101561020657600080fd5b81019080803573ffffffffffffffffffffffffffffffffffffffff16906020019092919080359060200190929190505050610b85565b005b34801561024a57600080fd5b506102976004803603604081101561026157600080fd5b81019080803573ffffffffffffffffffffffffffffffffffffffff16906020019092919080359060200190929190505050610c78565b604051808215151515815260200191505060405180910390f35b3480156102bd57600080fd5b506102c6610c8c565b6040518082815260200191505060405180910390f35b3480156102e857600080fd5b5061032b600480360360208110156102ff57600080fd5b81019080803573ffffffffffffffffffffffffffffffffffffffff169060200190929190505050610c92565b604051808215151515815260200191505060405180910390f35b34801561035157600080fd5b5061035a610cf5565b6040518082815260200191505060405180910390f35b34801561037c57600080fd5b506103bf6004803603602081101561039357600080fd5b81019080803573ffffffffffffffffffffffffffffffffffffffff169060200190929190505050610cff565b604051808215151515815260200191505060405180910390f35b3480156103e557600080fd5b50610452600480360360608110156103fc57600080fd5b81019080803573ffffffffffffffffffffffffffffffffffffffff169060200190929190803573ffffffffffffffffffffffffffffffffffffffff16906020019092919080359060200190929190505050610d1f565b604051808215151515815260200191505060405180910390f35b34801561047857600080fd5b506104bb6004803603602081101561048f57600080fd5b81019080803573ffffffffffffffffffffffffffffffffffffffff169060200190929190505050610d35565b005b3480156104c957600080fd5b506104d2610d90565b6040518082815260200191505060405180910390f35b3480156104f457600080fd5b506104fd610d96565b604051808273ffffffffffffffffffffffffffffffffffffffff1673ffffffffffffffffffffffffffffffffffffffff16815260200191505060405180910390f35b34801561054b57600080fd5b506105986004803603604081101561056257600080fd5b81019080803573ffffffffffffffffffffffffffffffffffffffff16906020019092919080359060200190929190505050610dbc565b604051808215151515815260200191505060405180910390f35b3480156105be57600080fd5b506105c7610f52565b6040518082815260200191505060405180910390f35b3480156105e957600080fd5b5061062c6004803603602081101561060057600080fd5b81019080803573ffffffffffffffffffffffffffffffffffffffff169060200190929190505050610f58565b005b34801561063a57600080fd5b50610643611034565b6040518082815260200191505060405180910390f35b34801561066557600080fd5b5061066e61103e565b005b34801561067c57600080fd5b506106c96004803603604081101561069357600080fd5b81019080803573ffffffffffffffffffffffffffffffffffffffff1690602001909291908035906020019092919050505061111c565b604051808215151515815260200191505060405180910390f35b3480156106ef57600080fd5b506107326004803603602081101561070657600080fd5b81019080803573ffffffffffffffffffffffffffffffffffffffff169060200190929190505050611198565b6040518082815260200191505060405180910390f35b34801561075457600080fd5b506107976004803603602081101561076b57600080fd5b81019080803573ffffffffffffffffffffffffffffffffffffffff1690602001909291905050506111e0565b604051808215151515815260200191505060405180910390f35b3480156107bd57600080fd5b506107c6611200565b604051808273ffffffffffffffffffffffffffffffffffffffff1673ffffffffffffffffffffffffffffffffffffffff16815260200191505060405180910390f35b34801561081457600080fd5b5061081d611226565b6040518080602001828103825283818151815260200191508051906020019080838360005b8381101561085d578082015181840152602081019050610842565b50505050905090810190601f16801561088a5780820380516001836020036101000a031916815260200191505b509250505060405180910390f35b3480156108a457600080fd5b50610911600480360360608110156108bb57600080fd5b81019080803573ffffffffffffffffffffffffffffffffffffffff169060200190929190803573ffffffffffffffffffffffffffffffffffffffff169060200190929190803590602001909291905050506112c4565b604051808215151515815260200191505060405180910390f35b34801561093757600080fd5b506109846004803603604081101561094e57600080fd5b81019080803573ffffffffffffffffffffffffffffffffffffffff16906020019092919080359060200190929190505050611391565b604051808215151515815260200191505060405180910390f35b3480156109aa57600080fd5b506109f7600480360360408110156109c157600080fd5b81019080803573ffffffffffffffffffffffffffffffffffffffff169060200190929190803590602001909291905050506113a5565b604051808215151515815260200191505060405180910390f35b348015610a1d57600080fd5b50610a8060048036036040811015610a3457600080fd5b81019080803573ffffffffffffffffffffffffffffffffffffffff169060200190929190803573ffffffffffffffffffffffffffffffffffffffff169060200190929190505050611421565b6040518082815260200191505060405180910390f35b348015610aa257600080fd5b50610ae560048036036020811015610ab957600080fd5b81019080803573ffffffffffffffffffffffffffffffffffffffff1690602001909291905050506114a8565b005b60038054600181600116156101000203166002900480601f016020809104026020016040519081016040528092919081815260200182805460018160011615610100020316600290048015610b7d5780601f10610b5257610100808354040283529160200191610b7d565b820191906000526020600020905b815481529060010190602001808311610b6057829003601f168201915b505050505081565b7fa5ff468a42a1c7f5a78dd6683a9722f1ef3c388d590959bbd7a6d2c837fcab07600760009054906101000a900473ffffffffffffffffffffffffffffffffffffffff168383604051808473ffffffffffffffffffffffffffffffffffffffff1673ffffffffffffffffffffffffffffffffffffffff1681526020018373ffffffffffffffffffffffffffffffffffffffff1673ffffffffffffffffffffffffffffffffffffffff168152602001828152602001935050505060405180910390a1610c73600760009054906101000a900473ffffffffffffffffffffffffffffffffffffffff168383610d1f565b505050565b6000610c848383611503565b905092915050565b60095481565b6000600b60008373ffffffffffffffffffffffffffffffffffffffff1673ffffffffffffffffffffffffffffffffffffffff16815260200190815260200160002060009054906101000a900460ff161515610cec57600080fd5b60019050919050565b6000600154905090565b600b6020528060005260406000206000915054906101000a900460ff1681565b6000610d2c8484846115f5565b90509392505050565b6001600a60008373ffffffffffffffffffffffffffffffffffffffff1673ffffffffffffffffffffffffffffffffffffffff16815260200190815260200160002060006101000a81548160ff02191690831515021790555050565b60055481565b600660009054906101000a900473ffffffffffffffffffffffffffffffffffffffff1681565b6000600a60008473ffffffffffffffffffffffffffffffffffffffff1673ffffffffffffffffffffffffffffffffffffffff16815260200190815260200160002060009054906101000a900460ff161515610e1657600080fd5b8160015401600954101515610f4757610e76826000808673ffffffffffffffffffffffffffffffffffffffff1673ffffffffffffffffffffffffffffffffffffffff1681526020019081526020016000205461184390919063ffffffff16565b6000808573ffffffffffffffffffffffffffffffffffffffff1673ffffffffffffffffffffffffffffffffffffffff16815260200190815260200160002081905550610ecd8260015461184390919063ffffffff16565b6001819055507f30385c845b448a36257a6a1716e6ad2e1bc2cbe333cde1e69fe849ad6511adfe8383604051808373ffffffffffffffffffffffffffffffffffffffff1673ffffffffffffffffffffffffffffffffffffffff1681526020018281526020019250505060405180910390a160019050610f4c565b600090505b92915050565b60085481565b600760009054906101000a900473ffffffffffffffffffffffffffffffffffffffff1673ffffffffffffffffffffffffffffffffffffffff163373ffffffffffffffffffffffffffffffffffffffff16141515610fb457600080fd5b600073ffffffffffffffffffffffffffffffffffffffff168173ffffffffffffffffffffffffffffffffffffffff1614151515610ff057600080fd5b80600660006101000a81548173ffffffffffffffffffffffffffffffffffffffff021916908373ffffffffffffffffffffffffffffffffffffffff16021790555050565b6000600854905090565b600760009054906101000a900473ffffffffffffffffffffffffffffffffffffffff1673ffffffffffffffffffffffffffffffffffffffff163373ffffffffffffffffffffffffffffffffffffffff1614151561109a57600080fd5b600760009054906101000a900473ffffffffffffffffffffffffffffffffffffffff1673ffffffffffffffffffffffffffffffffffffffff166108fc3073ffffffffffffffffffffffffffffffffffffffff16319081150290604051600060405180830381858888f19350505050158015611119573d6000803e3d6000fd5b50565b600060085442118061117b5750600660009054906101000a900473ffffffffffffffffffffffffffffffffffffffff1673ffffffffffffffffffffffffffffffffffffffff163373ffffffffffffffffffffffffffffffffffffffff16145b151561118657600080fd5b611190838361185f565b905092915050565b60008060008373ffffffffffffffffffffffffffffffffffffffff1673ffffffffffffffffffffffffffffffffffffffff168152602001908152602001600020549050919050565b600a6020528060005260406000206000915054906101000a900460ff1681565b600760009054906101000a900473ffffffffffffffffffffffffffffffffffffffff1681565b60048054600181600116156101000203166002900480601f0160208091040260200160405190810160405280929190818152602001828054600181600116156101000203166002900480156112bc5780601f10611291576101008083540402835291602001916112bc565b820191906000526020600020905b81548152906001019060200180831161129f57829003601f168201915b505050505081565b6000600b60008573ffffffffffffffffffffffffffffffffffffffff1673ffffffffffffffffffffffffffffffffffffffff16815260200190815260200160002060009054906101000a900460ff16151561131e57600080fd5b600b60008473ffffffffffffffffffffffffffffffffffffffff1673ffffffffffffffffffffffffffffffffffffffff16815260200190815260200160002060009054906101000a900460ff16151561137657600080fd5b6000821015151561138657600080fd5b600190509392505050565b600061139d8383611af1565b905092915050565b60006008544211806114045750600660009054906101000a900473ffffffffffffffffffffffffffffffffffffffff1673ffffffffffffffffffffffffffffffffffffffff163373ffffffffffffffffffffffffffffffffffffffff16145b151561140f57600080fd5b6114198383611d11565b905092915050565b6000600260008473ffffffffffffffffffffffffffffffffffffffff1673ffffffffffffffffffffffffffffffffffffffff16815260200190815260200160002060008373ffffffffffffffffffffffffffffffffffffffff1673ffffffffffffffffffffffffffffffffffffffff16815260200190815260200160002054905092915050565b6001600b60008373ffffffffffffffffffffffffffffffffffffffff1673ffffffffffffffffffffffffffffffffffffffff16815260200190815260200160002060006101000a81548160ff02191690831515021790555050565b600081600260003373ffffffffffffffffffffffffffffffffffffffff1673ffffffffffffffffffffffffffffffffffffffff16815260200190815260200160002060008573ffffffffffffffffffffffffffffffffffffffff1673ffffffffffffffffffffffffffffffffffffffff168152602001908152602001600020819055508273ffffffffffffffffffffffffffffffffffffffff163373ffffffffffffffffffffffffffffffffffffffff167f8c5be1e5ebec7d5bd14f71427d1e84f3dd0314c0f7b2291e5b200ac8c7c3b925846040518082815260200191505060405180910390a36001905092915050565b60008060008573ffffffffffffffffffffffffffffffffffffffff1673ffffffffffffffffffffffffffffffffffffffff1681526020019081526020016000205482111515156116ad576040517f08c379a00000000000000000000000000000000000000000000000000000000081526004018080602001828103825260128152602001807f4e6f7420656e6f7567682062616c616e6365000000000000000000000000000081525060200191505060405180910390fd5b6116fe826000808773ffffffffffffffffffffffffffffffffffffffff1673ffffffffffffffffffffffffffffffffffffffff16815260200190815260200160002054611f0d90919063ffffffff16565b6000808673ffffffffffffffffffffffffffffffffffffffff1673ffffffffffffffffffffffffffffffffffffffff16815260200190815260200160002081905550611791826000808673ffffffffffffffffffffffffffffffffffffffff1673ffffffffffffffffffffffffffffffffffffffff1681526020019081526020016000205461184390919063ffffffff16565b6000808573ffffffffffffffffffffffffffffffffffffffff1673ffffffffffffffffffffffffffffffffffffffff168152602001908152602001600020819055508273ffffffffffffffffffffffffffffffffffffffff168473ffffffffffffffffffffffffffffffffffffffff167fddf252ad1be2c89b69c2b068fc378daa952ba7f163c4a11628f55a4df523b3ef846040518082815260200191505060405180910390a3600190509392505050565b6000818301905082811015151561185657fe5b80905092915050565b600080600260003373ffffffffffffffffffffffffffffffffffffffff1673ffffffffffffffffffffffffffffffffffffffff16815260200190815260200160002060008573ffffffffffffffffffffffffffffffffffffffff1673ffffffffffffffffffffffffffffffffffffffff1681526020019081526020016000205490508083101515611971576000600260003373ffffffffffffffffffffffffffffffffffffffff1673ffffffffffffffffffffffffffffffffffffffff16815260200190815260200160002060008673ffffffffffffffffffffffffffffffffffffffff1673ffffffffffffffffffffffffffffffffffffffff16815260200190815260200160002081905550611a05565b6119848382611f0d90919063ffffffff16565b600260003373ffffffffffffffffffffffffffffffffffffffff1673ffffffffffffffffffffffffffffffffffffffff16815260200190815260200160002060008673ffffffffffffffffffffffffffffffffffffffff1673ffffffffffffffffffffffffffffffffffffffff168152602001908152602001600020819055505b8373ffffffffffffffffffffffffffffffffffffffff163373ffffffffffffffffffffffffffffffffffffffff167f8c5be1e5ebec7d5bd14f71427d1e84f3dd0314c0f7b2291e5b200ac8c7c3b925600260003373ffffffffffffffffffffffffffffffffffffffff1673ffffffffffffffffffffffffffffffffffffffff16815260200190815260200160002060008873ffffffffffffffffffffffffffffffffffffffff1673ffffffffffffffffffffffffffffffffffffffff168152602001908152602001600020546040518082815260200191505060405180910390a3600191505092915050565b60008060003373ffffffffffffffffffffffffffffffffffffffff1673ffffffffffffffffffffffffffffffffffffffff168152602001908152602001600020548211151515611b4057600080fd5b600073ffffffffffffffffffffffffffffffffffffffff168373ffffffffffffffffffffffffffffffffffffffff1614151515611b7c57600080fd5b611bcd826000803373ffffffffffffffffffffffffffffffffffffffff1673ffffffffffffffffffffffffffffffffffffffff16815260200190815260200160002054611f0d90919063ffffffff16565b6000803373ffffffffffffffffffffffffffffffffffffffff1673ffffffffffffffffffffffffffffffffffffffff16815260200190815260200160002081905550611c60826000808673ffffffffffffffffffffffffffffffffffffffff1673ffffffffffffffffffffffffffffffffffffffff1681526020019081526020016000205461184390919063ffffffff16565b6000808573ffffffffffffffffffffffffffffffffffffffff1673ffffffffffffffffffffffffffffffffffffffff168152602001908152602001600020819055508273ffffffffffffffffffffffffffffffffffffffff163373ffffffffffffffffffffffffffffffffffffffff167fddf252ad1be2c89b69c2b068fc378daa952ba7f163c4a11628f55a4df523b3ef846040518082815260200191505060405180910390a36001905092915050565b6000611da282600260003373ffffffffffffffffffffffffffffffffffffffff1673ffffffffffffffffffffffffffffffffffffffff16815260200190815260200160002060008673ffffffffffffffffffffffffffffffffffffffff1673ffffffffffffffffffffffffffffffffffffffff1681526020019081526020016000205461184390919063ffffffff16565b600260003373ffffffffffffffffffffffffffffffffffffffff1673ffffffffffffffffffffffffffffffffffffffff16815260200190815260200160002060008573ffffffffffffffffffffffffffffffffffffffff1673ffffffffffffffffffffffffffffffffffffffff168152602001908152602001600020819055508273ffffffffffffffffffffffffffffffffffffffff163373ffffffffffffffffffffffffffffffffffffffff167f8c5be1e5ebec7d5bd14f71427d1e84f3dd0314c0f7b2291e5b200ac8c7c3b925600260003373ffffffffffffffffffffffffffffffffffffffff1673ffffffffffffffffffffffffffffffffffffffff16815260200190815260200160002060008773ffffffffffffffffffffffffffffffffffffffff1673ffffffffffffffffffffffffffffffffffffffff168152602001908152602001600020546040518082815260200191505060405180910390a36001905092915050565b6000828211151515611f1b57fe5b81830390509291505056fea165627a7a7230582080a218dbaa4580f021726a24aaa681a07d10053cd1b279d569780095451689b00029",
  "source": "pragma solidity >= 0.4.22 < 0.6.0;\n\nlibrary SafeMath {\n    function mul(uint256 a, uint256 b) internal pure returns (uint256 c) {\n      // Gas optimization: this is cheaper than asserting 'a' not being zero, but the\n      // benefit is lost if 'b' is also tested.\n      // See: https://github.com/OpenZeppelin/openzeppelin-solidity/pull/522\n      if (a == 0) {\n        return 0;\n      }\n      c = a * b;\n      assert(c / a == b);\n      return c;\n    }\n\n    function div(uint256 a, uint256 b) internal pure returns (uint256) {\n      // assert(b > 0); // Solidity automatically throws when dividing by 0\n      // uint256 c = a / b;\n      // assert(a == b * c + a % b); // There is no case in which this doesn't hold\n      return a / b;\n    }\n\n    function sub(uint256 a, uint256 b) internal pure returns (uint256) {\n      assert(b <= a);\n      return a - b;\n    }\n\n    function add(uint256 a, uint256 b) internal pure returns (uint256 c) {\n      c = a + b;\n      assert(c >= a);\n      return c;\n    }\n}\n\ncontract Token {\n    using SafeMath for uint256;\n    event Transfer(address indexed from, address indexed to, uint256 value);\n    event Approval(address indexed owner, address indexed spender, uint256 value);\n    mapping(address => uint256) balances;\n    uint256 totalSupply_;\n    mapping (address => mapping (address => uint256)) internal allowed;\n\n    function totalSupply() public view returns (uint256) {\n      return totalSupply_;\n    }\n\n    function balanceOf(address _owner) public view returns (uint256) {\n      return balances[_owner];\n    }\n\n    function transfer(address _to, uint256 _value) public returns (bool) {\n      require(_value <= balances[msg.sender]);\n      require(_to != address(0));\n      balances[msg.sender] = balances[msg.sender].sub(_value);\n      balances[_to] = balances[_to].add(_value);\n      emit Transfer(msg.sender, _to, _value);\n      return true;\n    }\n\n    function transferFrom(address _from, address _to, uint256 _value) public returns (bool) {\n      require(_value <= balances[_from], \"Not enough balance\");\n      //require(_value <= allowed[_from][msg.sender]);\n      //require(_to != address(0));\n      balances[_from] = balances[_from].sub(_value);\n      balances[_to] = balances[_to].add(_value);\n      //allowed[_from][msg.sender] = allowed[_from][msg.sender].sub(_value);\n      emit Transfer(_from, _to, _value);\n      return true;\n    }\n\n    function approve(address _spender, uint256 _value) public returns (bool) {\n      allowed[msg.sender][_spender] = _value;\n      emit Approval(msg.sender, _spender, _value);\n      return true;\n    }\n\n    function allowance(address _owner,address _spender) public view returns (uint256) {\n      return allowed[_owner][_spender];\n    }\n\n    function increaseApproval(address _spender, uint256 _addedValue)\n        public returns (bool) {\n      allowed[msg.sender][_spender] = (allowed[msg.sender][_spender].add(_addedValue));\n      emit Approval(msg.sender, _spender, allowed[msg.sender][_spender]);\n      return true;\n    }\n\n    function decreaseApproval(address _spender, uint256 _subtractedValue)\n        public returns (bool) {\n      uint256 oldValue = allowed[msg.sender][_spender];\n      if (_subtractedValue >= oldValue) {\n        allowed[msg.sender][_spender] = 0;\n      } else {\n        allowed[msg.sender][_spender] = oldValue.sub(_subtractedValue);\n      }\n\n      emit Approval(msg.sender, _spender, allowed[msg.sender][_spender]);\n      return true;\n    }\n}\n\ncontract STOToken is Token {\n    string public name = 'SinosunToken';\n    string public symbol = 'Sinosun';\n    uint256 public decimals = 18;\n    address public crowdsaleAddress;\n    address payable public owner;\n    uint256 public STOEndTime;\n    uint256 public totalSupplyLimit_;\n    mapping (address => bool) public shareholderWhitelist;\n    mapping (address => bool) public investorWhitelist;\n    event BuyToken(address, address, uint256);\n    event Minted(address, uint256);\n\n    modifier onlyCrowdsale {\n      require(msg.sender == crowdsaleAddress);\n      _;\n    }\n\n    modifier onlyOwner {\n      require(msg.sender == owner);\n      _;\n    }\n\n    modifier afterCrowdsale {\n      require(now > STOEndTime || msg.sender == crowdsaleAddress);\n      _;\n    }\n\n    constructor (//uint256 _STOEndTime\n        )  public Token() {\n      //require(_STOEndTime > 0);\n      totalSupplyLimit_ = 100e24;\n      owner = msg.sender;\n      //a dummy date, Thursday, 8 December 2050 06:46:50\n      //just for testing\n      STOEndTime = 2554094810;  //STOEndTime = _STOEndTime;\n      // add owner to whitelist\n      shareholderWhitelist[owner] = true;\n      investorWhitelist[owner] = true;\n    }\n\n    function addToShareholderWhiteList(address _shareholder) public {\n        shareholderWhitelist[_shareholder] = true;\n    }\n\n    function addToInvestorWhiteList(address _investor) public {\n        investorWhitelist[_investor] = true;\n    }\n\n    function checkInvestorWhitelist(address _investor) public view returns(bool) {\n        require(investorWhitelist[_investor]);\n        return true;\n    }\n\n    function mint(address _to, uint256 _value) public\n        returns (bool)\n    {\n      require(shareholderWhitelist[_to]);\n      if (totalSupplyLimit_ >= totalSupply_ + _value) {\n        balances[_to] = balances[_to].add(_value);\n        totalSupply_ = totalSupply_.add(_value);\n        emit Minted(_to, _value);\n        return true;\n      }\n      return false;\n    }\n\n    /* If the transfer request comes from the STO, it only checks that the\n    investor is in the whitelist\n    * If the transfer request comes from a token holder, it checks that:\n    * a) Both are on the whitelist\n    * b) Seller's sale lockup period is over\n    * c) Buyer's purchase lockup is over\n    */\n    function verifyTransfer(address _from, address _to, uint256 _value)\n        public view returns (bool) {\n      //require(now > STOEndTime || msg.sender == crowdsaleAddress);\n      require(investorWhitelist[_from]);\n      require(investorWhitelist[_to]);\n      require(_value >= 0);\n      return true;\n    }\n\n    function setCrowdsale(address _crowdsaleAddress) public onlyOwner {\n      require(_crowdsaleAddress != address(0));\n      crowdsaleAddress = _crowdsaleAddress;\n    }\n\n    function buyTokens(address _receiver, uint256 _amount) public {\n      //require(_receiver != address(0));\n      //require(_amount > 0);\n      emit BuyToken(owner, _receiver, _amount);\n      transferFrom(owner, _receiver, _amount);\n    }\n\n    /// @notice Override the functions to not allow token transfers until the end\n    function transfer(address _to, uint256 _value) public returns(bool) {\n      //require(verifyTransfer( owner, _to, _value ));\n      return super.transfer(_to, _value);\n    }\n\n    /// @notice Override the functions to not allow token transfers until the end\n    function transferFrom(address _from, address _to, uint256 _value) public\n        returns(bool) {\n      //require(verifyTransfer(_from, _to, _value));\n      return super.transferFrom(_from, _to, _value);\n    }\n\n    /// @notice Override the functions to not allow token transfers until the end\n    function approve(address _spender, uint256 _value) public returns(bool) {\n      return super.approve(_spender, _value);\n    }\n\n    /// @notice Override the functions to not allow token transfers until the end\n    function increaseApproval(address _spender, uint _addedValue) public afterCrowdsale\n        returns(bool success) {\n      return super.increaseApproval(_spender, _addedValue);\n    }\n\n    /// @notice Override the functions to not allow token transfers until the end\n    function decreaseApproval(address _spender, uint _subtractedValue) public afterCrowdsale returns(bool success) {\n      return super.decreaseApproval(_spender, _subtractedValue);\n    }\n\n    function emergencyExtract() external onlyOwner {\n      owner.transfer(address(this).balance);\n    }\n\n    function returnSTOEndTime() external view returns (uint256) {\n      return STOEndTime;\n    }\n}\n\ncontract CrowdSale {\n    bool stoCompleted;\n    uint256 public stoStartTime;\n    uint256 public stoEndTime;\n    uint256 public tokenRate;\n    address public tokenAddress;\n    uint256 public fundingGoal;\n    address payable public owner;\n    STOToken public token;\n    uint256 public tokensRaised;\n    uint256 public etherRaised;\n    //mapping (address => bool) public investorWhitelist;\n\n    modifier whenStoCompleted {\n      require(stoCompleted);\n      _;\n    }\n\n    modifier onlyOwner {\n      require(msg.sender == owner);\n      _;\n    }\n\n    modifier onlyWhitelist {\n      require(token.checkInvestorWhitelist(msg.sender));\n      _;\n    }\n\n    modifier lockupPeriod {\n      require(now < stoEndTime && now > stoStartTime);\n      _;\n    }\n\n    constructor(\n        /**uint256 _stoStart,\n        uint256 _stoEnd,\n        uint256 _tokenRate,\n        uint256 _fundingGoal,*/\n        address _tokenAddress)  public {\n      require(_tokenAddress != address(0));\n      /** require(\n        _stoStart != 0 &&\n        _stoEnd != 0 &&\n        _stoStart < _stoEnd &&\n        _tokenRate != 0 &&\n        _tokenAddress != address(0) &&\n        _fundingGoal != 0); */\n      stoStartTime = 0;\n      tokenRate = 1000000000;\n      fundingGoal = 100000;\n\n      tokenAddress = _tokenAddress;\n      owner = msg.sender;\n      token = STOToken(_tokenAddress);\n      stoEndTime = token.returnSTOEndTime();\n    }\n\n    function addToWhiteList(address _investor) public {\n      //investorWhitelist[_investor] = true;\n      token.addToInvestorWhiteList(_investor);\n    }\n\n    function () external payable {\n      buy();\n    }\n\n    function buy() public payable {\n\n      //require(tokensRaised < fundingGoal);\n      uint256 tokensToBuy;\n      uint256 etherUsed = msg.value;\n      tokensToBuy = msg.value * (10 ** token.decimals()) / 1 ether * tokenRate;\n      // Check if we have reached and exceeded the funding goal\n      // to refund the exceeding tokens and ether\n      //to be added?\n\n      // Send the tokens to the buyer\n      token.buyTokens(msg.sender, tokensToBuy);\n\n      // Increase the tokens raised and ether raised state variables\n      tokensRaised += tokensToBuy;\n      etherRaised += etherUsed;\n    }\n\n    function buyWithAddress(address _investor) public payable {\n\n      //require(tokensRaised < fundingGoal);\n      uint256 tokensToBuy;\n      uint256 etherUsed = msg.value;\n      tokensToBuy = msg.value * (10 ** token.decimals()) / 1 ether * tokenRate;\n      // Check if we have reached and exceeded the funding goal\n      // to refund the exceeding tokens and ether\n      //to be added?\n\n      // Send the tokens to the buyer\n      token.buyTokens(_investor, tokensToBuy);\n\n      // Increase the tokens raised and ether raised state variables\n      tokensRaised += tokensToBuy;\n      etherRaised += etherUsed;\n    }\n\n    function extractEther() public whenStoCompleted onlyOwner {\n      owner.transfer(address(this).balance);\n    }\n}\n",
  "sourcePath": "/home/vic/workspace/sinosun/SmartContract/ICO/contracts/ICOToken.sol",
  "compiler": {
    "name": "solc",
    "version": "0.5.1+commit.c8a2cb62.Emscripten.clang"
  },
  "schemaVersion": "3.0.6",
  "updatedAt": "2019-04-24T02:12:56.996Z",
  "devdoc": {
    "methods": {}
  },
  "userdoc": {
    "methods": {
      "approve(address,uint256)": {
        "notice": "Override the functions to not allow token transfers until the end"
      },
      "decreaseApproval(address,uint256)": {
        "notice": "Override the functions to not allow token transfers until the end"
      },
      "increaseApproval(address,uint256)": {
        "notice": "Override the functions to not allow token transfers until the end"
      },
      "transfer(address,uint256)": {
        "notice": "Override the functions to not allow token transfers until the end"
      },
      "transferFrom(address,address,uint256)": {
        "notice": "Override the functions to not allow token transfers until the end"
      }
    }
  }
}